:100000000C942A000C9447000C9447000C94470071
:100010000C9447000C9447000C9447000C94470044
:100020000C9447000C9447000C9447000C94E10E8C
:100030000C9447000C9447000C9447000C94470024
:100040000C9447000C9447000C9447000C94470014
:100050000C94470011241FBECFE5D4E0DEBFCDBF16
:1000600010E0A0E6B0E0E2EEF2E202C005900D92F0
:10007000AA3AB107D9F710E0AAEAB0E001C01D9290
:10008000AC3AB107E1F70E94D90F0C946F110C94B0
:100090000000EF92FF920F931F937B018C0120E0F1
:1000A00030E040E05FE40E94490388238CF0C801FF
:1000B000B70120E030E040E05FE40E94C1010E940F
:1000C000A9039B01AC01205030404040504806C07D
:1000D000C801B7010E94A9039B01AC01B901CA0183
:1000E0001F910F91FF90EF900895A0E0B0E0EBE733
:1000F000F0E00C943811DC012B01FA019C91923054
:1001000008F439C1EB018881823008F433C194309E
:1001100069F4843009F02FC111969C91119789815F
:10012000981709F428C1A2EAB0E025C1843009F487
:1001300021C18230A9F4923009F01DC19A01AD01AC
:1001400088E0EA010990AE01E90109929E0181501F
:10015000C1F7E201898111969C918923818308C1AD
:10016000923009F407C112962D903C901397EB0141
:100170008A819B811496AD90BD90CD90DC901797AD
:10018000EC80FD800E811F819101281B390BB90184
:1001900037FF04C066277727621B730B6032710537
:1001A0000CF061C0121613066CF537014801062EDB
:1001B00004C096948794779467940A94D2F721E0C8
:1001C00030E040E050E004C0220F331F441F551FB1
:1001D0006A95D2F721503040404050402E213F21B7
:1001E00040235123211531054105510521F021E01E
:1001F00030E040E050E079018A01E628F72808293C
:1002000019293CC0232BD1F1260E371E350146019A
:10021000062E04C096948794779467940A94D2F734
:1002200021E030E040E050E004C0220F331F441FC3
:10023000551F6A95D2F721503040404050402A2146
:100240003B214C215D21211531054105510521F04E
:1002500021E030E040E050E059016A01A628B728CB
:10026000C828D9280BC0821593052CF01C01AA249C
:10027000BB24650103C0EE24FF24870111969C91E5
:10028000D20111968C91981709F445C0992339F041
:10029000A80197012A193B094C095D0906C0A6016E
:1002A00095012E193F09400B510B57FD08C01182D3
:1002B0003382228224833583468357831DC081E0A5
:1002C00081833382228288279927DC01821B930B4A
:1002D000A40BB50B84839583A683B7830DC0220F2F
:1002E000331F441F551F24833583468357838281E0
:1002F000938101979383828324813581468157813D
:10030000DA01C9010197A109B1098F5F9F4FAF4F72
:10031000BF4328F30BC0918333822282EA0CFB1C7B
:100320000C1D1D1DE482F5820683178383E0808304
:10033000248135814681578157FF1AC0C901AA27F8
:1003400097FDA095BA2F81709070A070B0705695EF
:10035000479537952795822B932BA42BB52B848318
:100360009583A683B7838281938101969383828349
:10037000DF0101C0D201CD01CDB7DEB7E2E10C94BF
:100380005411A0E2B0E0E7ECF1E00C944411698371
:100390007A838B839C832D833E834F835887E9E048
:1003A000EE2EF12CEC0EFD1ECE010196B7010E943F
:1003B000D2048E010F5E1F4FCE010596B8010E9438
:1003C000D2048A8991E089278A8BC701B801AE01DE
:1003D000475E5F4F0E9475000E94FD03A096E6E015
:1003E0000C946011A0E2B0E0E8EFF1E00C9444114D
:1003F00069837A838B839C832D833E834F835887C5
:10040000F9E0EF2EF12CEC0EFD1ECE010196B701A6
:100410000E94D2048E010F5E1F4FCE010596B801D7
:100420000E94D204C701B801AE01475E5F4F0E942F
:1004300075000E94FD03A096E6E00C946011A0E216
:10044000B0E0E5E2F2E00C94381169837A838B83A3
:100450009C832D833E834F835887CE010196BE0136
:10046000675F7F4F0E94D204CE010596BE016F5E8A
:100470007F4F0E94D2049985923088F0898982301A
:10048000C8F0943019F4823051F404C0843029F457
:10049000923081F482EA90E0C6C0923049F420E0C4
:1004A0009A858A89981321E02A87CE010996BBC0D4
:1004B000823049F420E09A858A89981321E02A8BBA
:1004C000CE014196B0C02D843E844F8458886D88FB
:1004D0007E888F88988CEE24FF248701AA24BB2471
:1004E000650140E050E060E070E0E0E0F0E0C10174
:1004F00081709070892BE9F0E60CF71C081D191D1E
:100500009A01AB012A0D3B1D4C1D5D1D80E090E062
:10051000A0E0B0E0E614F7040805190520F481E036
:1005200090E0A0E0B0E0BA01A901480F591F6A1F8E
:100530007B1FAA0CBB1CCC1CDD1C97FE08C081E0F5
:1005400090E0A0E0B0E0A82AB92ACA2ADB2A3196B6
:10055000E032F10549F0660C771C881C991C569412
:10056000479437942794C3CFFA85EA892B893C892D
:100570008B859C85280F391F2E5F3F4F17C0CA01FE
:1005800081709070892B61F016950795F794E79428
:1005900080E090E0A0E0B0E8E82AF92A0A2B1B2BC3
:1005A00076956795579547952F5F3F4F77FDE7CF36
:1005B0000CC0440F551F661F771F17FD4160EE0CDE
:1005C000FF1C001F111F21503040403090E05907A0
:1005D00090E0690790E4790760F32B8F3C8FDB0193
:1005E000CA018F779070A070B07080349105A1051A
:1005F000B10561F447FD0AC0E114F10401051105DC
:1006000029F0405C5F4F6F4F7F4F40781A8EFE1786
:1006100011F081E08A8F4D8F5E8F6F8F78A383E01A
:10062000898FCE0149960E94FD03A096E2E10C94C9
:100630005411A8E1B0E0EFE1F3E00C9444116983B8
:100640007A838B839C832D833E834F83588789E0F5
:10065000E82EF12CEC0EFD1ECE010196B7010E9492
:10066000D2048E010F5E1F4FCE010596B8010E9485
:10067000D2048985823040F08989823028F0C70110
:10068000B8010E944A0501C08FEF6896E6E00C941D
:100690006011A8E1B0E0EFE4F3E00C944411698349
:1006A0007A838B839C832D833E834F83588789E095
:1006B000E82EF12CEC0EFD1ECE010196B7010E9432
:1006C000D2048E010F5E1F4FCE010596B8010E9425
:1006D000D2048985823040F08989823028F0C701B0
:1006E000B8010E944A0501C08FEF6896E6E00C94BD
:1006F0006011A8E1B0E0EFE7F3E00C9444116983E6
:100700007A838B839C832D833E834F83588789E034
:10071000E82EF12CEC0EFD1ECE010196B7010E94D1
:10072000D2048E010F5E1F4FCE010596B8010E94C4
:10073000D2048985823040F08989823028F0C7014F
:10074000B8010E944A0501C081E06896E6E00C9479
:100750006011ACE0B0E0EFEAF3E00C94481169837B
:100760007A838B839C83CE010196BE016B5F7F4FA2
:100770000E94D2048D81823061F1823050F1843048
:1007800021F48E81882351F12EC02F81388537FDC9
:1007900020C06E812F3131051CF06623F9F023C093
:1007A0008EE190E0821B930B29853A854B855C8511
:1007B00004C056954795379527958A95D2F76623B5
:1007C000B1F050954095309521953F4F4F4F5F4F79
:1007D0000EC020E030E040E050E009C02FEF3FEFD6
:1007E0004FEF5FE704C020E030E040E050E8B9019F
:1007F000CA012C96E2E00C946411DF92EF92FF9212
:100800000F931F93FC01E480F58006811781D1804E
:100810008081823048F480E090E0A0E1B0E0E82AF6
:10082000F92A0A2B1B2BA5C0843009F49FC0823003
:1008300021F4EE24FF24870105C0E114F104010531
:10084000110519F4E0E0F0E096C0628173819FEF3A
:10085000623879070CF05BC022E83FEF261B370BAC
:100860002A3131052CF020E030E040E050E02AC091
:10087000B801A701022E04C0769567955795479554
:100880000A94D2F781E090E0A0E0B0E004C0880FC5
:10089000991FAA1FBB1F2A95D2F70197A109B10979
:1008A0008E219F21A023B1230097A105B10521F03E
:1008B00081E090E0A0E0B0E09A01AB01282B392B59
:1008C0004A2B5B2BDA01C9018F779070A070B07052
:1008D00080349105A105B10539F427FF09C0205CDA
:1008E0003F4F4F4F5F4F04C0215C3F4F4F4F5F4F13
:1008F000E0E0F0E02030A0E03A07A0E04A07A0E402
:100900005A0710F0E1E0F0E079018A0127C0603871
:10091000710564F5FB01E158FF4FD801C7018F77DE
:100920009070A070B07080349105A105B10539F4C4
:10093000E7FE0DC080E490E0A0E0B0E004C08FE3EB
:1009400090E0A0E0B0E0E80EF91E0A1F1B1F17FFA1
:1009500005C016950795F794E794319687E01695AC
:100960000795F794E7948A95D1F705C0EE24FF2404
:100970008701EFEFF0E06E2F679566276795902F60
:100980009F77D794DD24D7948E2F8695492F462BB9
:10099000582F5D29B701CA011F910F91FF90EF9069
:1009A000DF900895FC01DB01408151812281622F9B
:1009B0006F7770E0221F2227221F9381892F880FD3
:1009C000822B282F30E0991F9927991F11969C930D
:1009D000119721153105A9F54115510561057105DD
:1009E00011F482E037C082E89FEF13969C938E93B8
:1009F00012979A01AB0167E0220F331F441F551F66
:100A00006A95D1F783E08C930DC0220F331F441FEA
:100A1000551F12968D919C911397019713969C9355
:100A20008E931297203080E0380780E0480780E4FA
:100A3000580758F314962D933D934D935C93179755
:100A400008952F3F310579F4411551056105710570
:100A500019F484E08C93089564FF03C081E08C93C3
:100A600012C01C9210C02F57304013963C932E9307
:100A7000129783E08C9387E0440F551F661F771F02
:100A80008A95D1F7706414964D935D936D937C9322
:100A9000179708951F93DC01FB019C91923008F495
:100AA00047C08081823008F443C0943051F41196DD
:100AB0001C91843099F58181682F70E0611B710968
:100AC0003FC0843021F0923031F48230B9F181811D
:100AD000882389F12DC011961C9111978230F1F075
:100AE00081811817D9F412962D913C911397828128
:100AF00093818217930794F028173907BCF0149656
:100B00008D919D910D90BC91A02D248135814681C0
:100B10005781281739074A075B0718F4112341F05A
:100B20000AC082179307A407B50740F4112319F0F0
:100B300061E070E005C06FEF7FEF02C060E070E041
:100B4000CB011F910895DF93CF93CDB7DEB7E7E2D6
:100B5000F0E080818F7D8083E7E2F0E080818F7319
:100B600080648083E6E2F0E08081887F8660808315
:100B7000E6E2F0E0808180688083E6E2F0E0808158
:100B800088608083CF91DF910895DF93CF9300D069
:100B9000CDB7DEB78A8382E089838A81883058F4B2
:100BA000E7E2F0E08A818F71982F9F718081807ECB
:100BB000892B808302C083E0898389810F900F9005
:100BC000CF91DF910895DF93CF93CDB7DEB727970D
:100BD0000FB6F894DEBF0FBECDBF9F838E831A82FF
:100BE0001B821C821D8282E089838E819F810097F7
:100BF000D1F1E6E2F0E08081806480830BC08A81DD
:100C00009B81AC81BD810196A11DB11D8A839B830F
:100C1000AC83BD83E6E2F0E080818071882361F4DB
:100C20008A819B81AC81BD81813A26E8920721E0CF
:100C3000A20720E0B20718F3E6E2F0E080818071BD
:100C4000882371F0E6E2F0E0808180618083E4E255
:100C5000F0E080819181EE81FF819183808304C0E7
:100C600081E0898301C01982898127960FB6F894A3
:100C7000DEBF0FBECDBFCF91DF910895DF93CF933D
:100C8000CDB7DEB7E6E2F0E0808180648083CF916B
:100C9000DF910895DF93CF9300D000D0CDB7DEB7BA
:100CA0009C838B8384E08A8382E089838B819C810F
:100CB0000097C1F013C08A8181508A838A810E9483
:100CC000C5058A81882F90E09C01220F331F8B81FC
:100CD0009C81820F931F0E94E30589838A81882368
:100CE00051F701C0198289810F900F900F900F90DA
:100CF000CF91DF910895EF92FF920F931F93DF93AF
:100D0000CF93CDB7DEB72C970FB6F894DEBF0FBEEA
:100D1000CDBF9E838D8378876F835A8749873C87B1
:100D20002B871A821982E4E2F0E0808191819A8314
:100D3000898329813A818D819E81A901481B590BA4
:100D4000CA017C0100E010E02B853C8589859A85ED
:100D5000A901481B590BCA019C0140E050E0C801A1
:100D6000B7010E94F7107B018C012F8138858D819E
:100D70009E81A901481B590BCA019C0140E050E02B
:100D8000C801B7010E941611DA01C9019C018985C9
:100D90009A85820F931F9C838B838B819C812C96D9
:100DA0000FB6F894DEBF0FBECDBFCF91DF911F917C
:100DB0000F91FF90EF900895DF93CF9300D000D074
:100DC000CDB7DEB789836A838981282F30E03C83E1
:100DD0002B838B819C8181309105D1F02B813C81CB
:100DE000223031052CF48B819C81009761F01EC06C
:100DF0002B813C812230310581F08B819C818330B5
:100E0000910581F013C0EAE3F0E08A8180830EC08F
:100E1000E7E3F0E08A81808309C0E4E3F0E08A81BF
:100E2000808304C0E1E3F0E08A8180830F900F901B
:100E30000F900F90CF91DF910895DF93CF9300D063
:100E400000D0CDB7DEB789836A838981282F30E04F
:100E50003C832B838B819C8181309105D1F02B8148
:100E60003C81223031052CF48B819C81009761F00C
:100E70001EC02B813C812230310581F08B819C8109
:100E80008330910581F013C0EBE3F0E08A81808329
:100E90000EC0E8E3F0E08A81808309C0E5E3F0E07A
:100EA0008A81808304C0E2E3F0E08A8180830F902E
:100EB0000F900F900F90CF91DF910895DF93CF9314
:100EC000CDB7DEB727970FB6F894DEBF0FBECDBF04
:100ED00089836A834B838A81883008F0EAC08B81DA
:100EE000813009F06FC08981282F30E03F832E8345
:100EF0008E819F818130910549F12E813F81223081
:100F000031052CF48E819F81009761F0D2C02E8133
:100F10003F812230310571F18E819F8183309105AF
:100F2000E9F1C7C0AAE3B0E0EAE3F0E08081482F2E
:100F30008A81282F30E081E090E0022E02C0880FE5
:100F4000991F0A94E2F7842B8C93B3C0A7E3B0E017
:100F5000E7E3F0E08081482F8A81282F30E081E0AC
:100F600090E0022E02C0880F991F0A94E2F7842BAA
:100F70008C939FC0A4E3B0E0E4E3F0E08081482FCD
:100F80008A81282F30E081E090E0022E02C0880F95
:100F9000991F0A94E2F7842B8C938BC0A1E3B0E0F5
:100FA000E1E3F0E08081482F8A81282F30E081E062
:100FB00090E0022E02C0880F991F0A94E2F7842B5A
:100FC0008C9377C08B81882309F073C08981282F87
:100FD00030E03D832C838C819D818130910559F1D6
:100FE0002C813D81223031052CF48C819D8100972C
:100FF00069F05FC02C813D812230310589F18C81FF
:101000009D818330910509F440C053C0AAE3B0E04C
:10101000EAE3F0E08081482F8A81282F30E081E0E8
:1010200090E0022E02C0880F991F0A94E2F7809583
:1010300084238C933EC0A7E3B0E0E7E3F0E0808137
:10104000482F8A81282F30E081E090E0022E02C0F4
:10105000880F991F0A94E2F7809584238C9329C006
:10106000A4E3B0E0E4E3F0E08081482F8A81282FF8
:1010700030E081E090E0022E02C0880F991F0A94B0
:10108000E2F7809584238C9314C0A1E3B0E0E1E300
:10109000F0E08081482F8A81282F30E081E090E0C5
:1010A000022E02C0880F991F0A94E2F780958423CC
:1010B0008C9327960FB6F894DEBF0FBECDBFCF91AD
:1010C000DF910895DF93CF93CDB7DEB727970FB6A3
:1010D000F894DEBF0FBECDBF89836A834B838A81BC
:1010E000883008F0EAC08B81813009F06FC08981B7
:1010F000282F30E03F832E838E819F8181309105A0
:1011000049F12E813F81223031052CF48E819F815F
:10111000009761F0D2C02E813F812230310571F1FC
:101120008E819F8183309105E9F1C7C0ABE3B0E0C8
:10113000EBE3F0E08081482F8A81282F30E081E0C6
:1011400090E0022E02C0880F991F0A94E2F7842BC8
:101150008C93B3C0A8E3B0E0E8E3F0E08081482FCF
:101160008A81282F30E081E090E0022E02C0880FB3
:10117000991F0A94E2F7842B8C939FC0A5E3B0E0FB
:10118000E5E3F0E08081482F8A81282F30E081E07C
:1011900090E0022E02C0880F991F0A94E2F7842B78
:1011A0008C938BC0A2E3B0E0E2E3F0E08081482FB3
:1011B0008A81282F30E081E090E0022E02C0880F63
:1011C000991F0A94E2F7842B8C9377C08B81882334
:1011D00009F073C08981282F30E03D832C838C81F6
:1011E0009D818130910559F12C813D81223031055D
:1011F0002CF48C819D81009769F05FC02C813D812A
:101200002230310589F18C819D818330910509F46B
:1012100040C053C0ABE3B0E0EBE3F0E08081482F87
:101220008A81282F30E081E090E0022E02C0880FF2
:10123000991F0A94E2F7809584238C933EC0A8E31B
:10124000B0E0E8E3F0E08081482F8A81282F30E089
:1012500081E090E0022E02C0880F991F0A94E2F705
:10126000809584238C9329C0A5E3B0E0E5E3F0E00A
:101270008081482F8A81282F30E081E090E0022E83
:1012800002C0880F991F0A94E2F7809584238C93FB
:1012900014C0A2E3B0E0E2E3F0E08081482F8A814D
:1012A000282F30E081E090E0022E02C0880F991FC5
:1012B0000A94E2F7809584238C9327960FB6F894CE
:1012C000DEBF0FBECDBFCF91DF910895DF93CF93E7
:1012D00000D000D00F92CDB7DEB78A836B838B81AD
:1012E000883008F067C08A81282F30E03D832C8346
:1012F0004C815D814130510541F18C819D8182306D
:10130000910534F42C813D812115310561F052C0E5
:101310004C815D814230510551F18C819D8183303A
:101320009105B9F147C0E9E3F0E08081282F30E072
:101330008B81882F90E0A90102C0559547958A9529
:10134000E2F7CA018170898335C0E6E3F0E080816D
:10135000282F30E08B81882F90E0A90102C055959D
:1013600047958A95E2F7CA018170898323C0E3E338
:10137000F0E08081282F30E08B81882F90E0A90158
:1013800002C0559547958A95E2F7CA018170898315
:1013900011C0E0E3F0E08081282F30E08B81882FBE
:1013A00090E0A90102C0559547958A95E2F7CA01D8
:1013B0008170898389810F900F900F900F900F900B
:1013C000CF91DF910895DF93CF9300D000D00F929B
:1013D000CDB7DEB78A836B8319828A81282F30E0EC
:1013E0003D832C834C815D814130510541F18C81DD
:1013F0009D818230910534F42C813D812115310588
:1014000061F052C04C815D814230510551F18C81B7
:101410009D8183309105B9F147C0E9E3F0E0808117
:10142000282F30E08B81882F90E0A90102C05595CC
:1014300047958A95E2F7CA018170898335C0E6E352
:10144000F0E08081282F30E08B81882F90E0A90187
:1014500002C0559547958A95E2F7CA018170898344
:1014600023C0E3E3F0E08081282F30E08B81882FD8
:1014700090E0A90102C0559547958A95E2F7CA0107
:101480008170898311C0E0E3F0E08081282F30E093
:101490008B81882F90E0A90102C0559547958A95C8
:1014A000E2F7CA018170898389810F900F900F90B4
:1014B0000F900F90CF91DF910895DF93CF9300D0DD
:1014C00000D0CDB7DEB789836A838A81883008F07F
:1014D0006EC08981282F30E03C832B838B819C81D7
:1014E0008130910549F12B813C81223031052CF46A
:1014F0008B819C81009761F05AC02B813C81223006
:10150000310571F18B819C8183309105E9F14FC0E8
:10151000ABE3B0E0EBE3F0E08081482F8A81282F35
:1015200030E081E090E0022E02C0880F991F0A94FB
:10153000E2F784278C933BC0A8E3B0E0E8E3F0E057
:101540008081482F8A81282F30E081E090E0022EB0
:1015500002C0880F991F0A94E2F784278C9327C052
:10156000A5E3B0E0E5E3F0E08081482F8A81282FF1
:1015700030E081E090E0022E02C0880F991F0A94AB
:10158000E2F784278C9313C0A2E3B0E0E2E3F0E03B
:101590008081482F8A81282F30E081E090E0022E60
:1015A00002C0880F991F0A94E2F784278C930F904A
:1015B0000F900F900F90CF91DF910895DF93CF930D
:1015C000CDB7DEB7AFE5B0E0EFE5F0E08081806851
:1015D0008C93CF91DF910895DF93CF93CDB7DEB792
:1015E000AFE5B0E0EFE5F0E080818F778C93CF91AD
:1015F000DF910895DF93CF93CDB7DEB72E970FB667
:10160000F894DEBF0FBECDBF80E090E0A0EFB1E464
:101610008B879C87AD87BE876B857C858D859E85F6
:1016200020E030E04AE753E40E941F02DC01CB01D6
:101630008F839887A987BA876F81788589859A85EE
:1016400020E030E040E85FE30E94790388232CF437
:1016500081E090E09E838D833FC06F81788589858E
:101660009A8520E03FEF4FE757E40E9419031816D0
:101670004CF56B857C858D859E8520E030E040E2D1
:1016800051E40E941F02DC01CB01BC01CD010E948C
:101690004900DC01CB019E838D830FC089E190E07E
:1016A0009C838B838B819C810197F1F79C838B8337
:1016B0008D819E8101979E838D838D819E81009770
:1016C00069F714C06F81788589859A850E944900E1
:1016D000DC01CB019E838D838D819E819A838983DA
:1016E00089819A810197F1F79A83898382E066E084
:1016F00041E00E945E0782E067E041E00E945E07F1
:1017000082E062E041E00E945E0782E063E041E047
:101710000E945E0782E064E041E00E945E0782E092
:1017200065E041E00E945E0782E00E941B0D88E2B6
:101730000E941B0D8CE00E941B0D81E00E941B0D7E
:1017400086E00E941B0D2E960FB6F894DEBF0FBEEA
:10175000CDBFCF91DF910895DF93CF93CDB7DEB7A3
:101760006D970FB6F894DEBF0FBECDBF8D8F8D8DF8
:10177000982F991F9927991F82E065E0492F0E94B1
:1017800062088D8D8295869586958370982F9170CD
:1017900082E064E0492F0E9462088D8D82958695D3
:1017A0008770982F917082E063E0492F0E94620851
:1017B0008D8D82958F70982F917082E062E0492F15
:1017C0000E94620882E067E041E00E94620880E0D7
:1017D00090E0A0E0B0E4898F9A8FAB8FBC8F698DC9
:1017E0007A8D8B8D9C8D20E030E04AE753E40E9497
:1017F0001F02DC01CB018D8B9E8BAF8BB88F6D8967
:101800007E898F89988D20E030E040E85FE30E9478
:10181000790388232CF481E090E09C8B8B8B3FC074
:101820006D897E898F89988D20E03FEF4FE757E4DF
:101830000E94190318164CF5698D7A8D8B8D9C8D3D
:1018400020E030E040E251E40E941F02DC01CB01C5
:10185000BC01CD010E944900DC01CB019C8B8B8B2C
:101860000FC089E190E09A8B898B89899A890197C9
:10187000F1F79A8B898B8B899C8901979C8B8B8B39
:101880008B899C89009769F714C06D897E898F893F
:10189000988D0E944900DC01CB019C8B8B8B8B893E
:1018A0009C89988B8F878F8598890197F1F7988B02
:1018B0008F8782E067E040E00E9462088D8D869508
:1018C00086958695982F917082E065E0492F0E9459
:1018D00062088D8D86958695982F917082E064E0E0
:1018E000492F0E9462088D8D8695982F917082E015
:1018F00063E0492F0E9462088D8D982F917082E0DD
:1019000062E0492F0E94620882E067E041E00E94A5
:10191000620880E090E0A0E0B0E48B879C87AD8710
:10192000BE876B857C858D859E8520E030E04AE70B
:1019300053E40E941F02DC01CB018F839887A987A3
:10194000BA876F81788589859A8520E030E040E804
:101950005FE30E94790388232CF481E090E09E836A
:101960008D833FC06F81788589859A8520E03FEF20
:101970004FE757E40E94190318164CF56B857C85D8
:101980008D859E8520E030E040E251E40E941F02F8
:10199000DC01CB01BC01CD010E944900DC01CB017F
:1019A0009E838D830FC089E190E09C838B838B8124
:1019B0009C810197F1F79C838B838D819E81019798
:1019C0009E838D838D819E81009769F714C06F81FE
:1019D000788589859A850E944900DC01CB019E8328
:1019E0008D838D819E819A83898389819A810197D4
:1019F000F1F79A83898382E067E040E00E94620801
:101A00006D960FB6F894DEBF0FBECDBFCF91DF91BC
:101A10000895DF93CF930F92CDB7DEB7898382E02D
:101A200066E041E00E94620889810E94AC0B0F9041
:101A3000CF91DF910895DF93CF930F92CDB7DEB7AB
:101A4000898382E066E040E00E94620889810E940A
:101A5000AC0B0F90CF91DF910895DF93CF9300D01F
:101A600000D0CDB7DEB79C838B831A8219820FC05A
:101A70002B813C8189819A81F901E80FF91F8081CE
:101A80000E94090D89819A8101969A8389832B810D
:101A90003C8189819A81F901E80FF91F80818823AF
:101AA00039F70F900F900F900F90CF91DF9108951D
:101AB000DF93CF93CDB7DEB727970FB6F894DEBF8D
:101AC0000FBECDBF8E836F831A8280E48B8384E147
:101AD0008C8384E58D838E81282F30E0CE010296A1
:101AE000FC01E20FF31F90818F81890F8058898359
:101AF00089810E941B0D27960FB6F894DEBF0FBE9A
:101B0000CDBFCF91DF910895DF93CF93CDB7DEB7EF
:101B100081E00E941B0DCF91DF9108950F931F93D9
:101B2000DF93CF93CDB7DEB763970FB6F894DEBFE0
:101B30000FBECDBF688B798B8A8B9B8B88899989E7
:101B4000AA89BB898A839B83AC83BD8319828981DF
:101B5000082F10E08A819B81AC81BD812AE030E0B2
:101B600040E050E0BC01CD010E941611DC01CB0128
:101B7000282F205DCE010696FC01E00FF11F208387
:101B80008A819B81AC81BD812AE030E040E050E059
:101B9000BC01CD010E941611DA01C9018A839B8321
:101BA000AC83BD8389818F5F89838A819B81AC816E
:101BB000BD810097A105B10551F611C08981882F1B
:101BC00090E09C0121503040CE010696FC01E20FCE
:101BD000F31F80810E94090D898181508983898149
:101BE000882361F763960FB6F894DEBF0FBECDBFB2
:101BF000CF91DF911F910F910895DF93CF9300D084
:101C000000D00F92CDB7DEB79C838B836D83198292
:101C10008D81882F90E00896880F991F880F991F53
:101C2000880F991F8A838A810E941B0D19820EC01A
:101C30008981282F30E08B819C81FC01E20FF31F0A
:101C400080810E94090D89818F5F89838981883015
:101C500078F30F900F900F900F900F90CF91DF912E
:101C60000895DF93CF930F92CDB7DEB78983898133
:101C70000E94090D0F90CF91DF910895DF93CF93CC
:101C8000CDB7DEB783E065E041E00E945E07AFE4D8
:101C9000B0E0EFE4F0E080818E7F8C93AFE4B0E0C1
:101CA000EFE4F0E0808182608C93AEE4B0E0EEE49B
:101CB000F0E0808188608C93AEE4B0E0EEE4F0E088
:101CC000808180618C93AFE4B0E0EFE4F0E080814C
:101CD00080688C93AFE4B0E0EFE4F0E080818F7B2C
:101CE0008C93CF91DF910895DF93CF93CDB7DEB77B
:101CF000E6E4F0E08FE19EE491838083CF91DF9171
:101D00000895DF93CF9300D0CDB7DEB79A83898350
:101D1000EAE4F0E089819A81918380830F900F90AB
:101D2000CF91DF910895DF93CF93CDB7DEB7AEE4C7
:101D3000B0E0EEE4F0E080818E7F8C93AEE4B0E022
:101D4000EEE4F0E080818D7F8C93AEE4B0E0EEE4D1
:101D5000F0E0808184608C93CF91DF910895DF93D0
:101D6000CF93CDB7DEB7AEE4B0E0EEE4F0E0808133
:101D70008E7F8C93AEE4B0E0EEE4F0E080818D7F66
:101D80008C93AEE4B0E0EEE4F0E080818B7F8C9346
:101D9000CF91DF910895DF93CF9300D0CDB7DEB719
:101DA0009A83898389819A81009731F089819A8108
:101DB0009093AB008093AA000F900F90CF91DF918A
:101DC00008951F920F920FB60F9211242F933F93F5
:101DD0004F935F936F937F938F939F93AF93BF9333
:101DE000EF93FF93DF93CF93CDB7DEB7E091AA00D7
:101DF000F091AB000995CF91DF91FF91EF91BF91E9
:101E0000AF919F918F917F916F915F914F913F9192
:101E10002F910F900FBE0F901F901895DF93CF93C7
:101E2000CDB7DEB7E3E5F0E080818F7B8083E3E52B
:101E3000F0E08081877F8083E2E5F0E01082E9E5D1
:101E4000F0E0808181608083CF91DF910895DF93FE
:101E5000CF93CDB7DEB7E3E5F0E08081887F808364
:101E6000CF91DF910895DF93CF93CDB7DEB7E3E550
:101E7000F0E08081887F82608083CF91DF91089538
:101E8000DF93CF930F92CDB7DEB78983E2E5F0E021
:101E9000898180830F90CF91DF910895DF93CF9355
:101EA000CDB7DEB7E2E5F0E08081CF91DF91089514
:101EB000DF93CF930F92CDB7DEB789830F90CF9189
:101EC000DF910895DF93CF93CDB7DEB7E1E4F0E083
:101ED000808188608083CF91DF910895DF93CF93D5
:101EE000CDB7DEB7E1E4F0E088E18083E1E4F0E043
:101EF0008081877F8083CF91DF910895DF93CF9397
:101F00000F92CDB7DEB78983E1E4F0E08981877075
:101F1000982F97708081887F892B80830F90CF9135
:101F2000DF910895DF93CF93CDB7DEB728970FB633
:101F3000F894DEBF0FBECDBF6D837E838F839887FD
:101F400019821A821B821C821EC0E2E5F0E0108218
:101F5000E8E5F0E08081882F90E082709070009733
:101F6000B9F3A8E5B0E0E8E5F0E0808182608C9309
:101F700089819A81AB81BC810196A11DB11D8983A4
:101F80009A83AB83BC8329813A814B815C818D81AB
:101F90009E81AF81B885281739074A075B07A8F2E9
:101FA00028960FB6F894DEBF0FBECDBFCF91DF915C
:101FB0000895DF93CF93CDB7DEB728970FB6F89487
:101FC000DEBF0FBECDBF81E060E041E00E945E0752
:101FD00081E060E040E00E94620881E061E041E071
:101FE0000E945E0781E061E040E00E94620881E0BB
:101FF00062E041E00E945E0781E062E040E00E9412
:10200000620881E064E041E00E945E0781E064E0F4
:1020100040E00E9462080E943E0E0E94740E0E94E0
:10202000930E0E94FA0A0E94A305E3E5F0E08BE01C
:102030008083ECE5F0E08AEF808380E690E00E9408
:102040002D0D64E670E080E090E00E94920F0E9407
:10205000840D81E00E94C505CE0107960E94E3052C
:102060008F819885CC01A0E0B0E028E230E040E02C
:1020700050E0BC01CD010E94F710DC01CB012FEF35
:1020800033E040E050E0BC01CD010E941611DA01BE
:10209000C90149969A83898389819A810E94810E18
:1020A00064E670E080E090E00E94920F80E00E9481
:1020B000C505CE0105960E94E3058D819E81CC0168
:1020C000A0E0B0E024EF31E040E050E0BC01CD0101
:1020D0000E94F710DC01CB012FEF33E040E050E02D
:1020E000BC01CD010E941611DA01C9019C838B83CA
:1020F00080E060E00E94580D8CE690E00E942D0D7B
:102100008B819C81CC01A0E0B0E0BC01CD010E949C
:102110008E0D84E790E00E942D0D64E670E080E073
:1021200090E00E94920F80E060E40E94580D8B8145
:102130009C818C339105C8F081E060E041E00E9411
:10214000620881E062E040E00E94620881E061E0B4
:1021500040E00E94620881E064E041E00E94620881
:1021600087E790E00E942D0D3BC08B819C818832D7
:102170009105F0F08B819C818C339105C8F481E04E
:1021800061E041E00E94620881E062E040E00E947C
:10219000620881E060E040E00E94620881E064E063
:1021A00040E00E94620885E890E00E942D0D18C072
:1021B00081E062E041E00E94620881E061E040E08D
:1021C0000E94620881E060E040E00E94620881E0D5
:1021D00064E040E00E94620885E990E00E942D0DD5
:1021E00064E170E080E090E00E94920F32CF629F45
:1021F000D001739FF001829FE00DF11D649FE00DFF
:10220000F11D929FF00D839FF00D749FF00D659F5F
:10221000F00D9927729FB00DE11DF91F639FB00D5E
:10222000E11DF91FBD01CF0111240895A1E21A2E6D
:10223000AA1BBB1BFD010DC0AA1FBB1FEE1FFF1F6A
:10224000A217B307E407F50720F0A21BB30BE40BBA
:10225000F50B661F771F881F991F1A9469F7609501
:102260007095809590959B01AC01BD01CF010895BB
:102270002F923F924F925F926F927F928F929F9296
:10228000AF92BF92CF92DF92EF92FF920F931F9384
:10229000CF93DF93CDB7DEB7CA1BDB0B0FB6F89435
:1022A000DEBF0FBECDBF09942A88398848885F8475
:1022B0006E847D848C849B84AA84B984C884DF80E6
:1022C000EE80FD800C811B81AA81B981CE0FD11DCA
:1022D0000FB6F894DEBF0FBECDBFED010895F894A0
:0222E000FFCF2E
:1022E20048656C6C6F204661746D610054656D7059
:1022F200203D2000204300486967682054656D70C6
:1023020021202020004D656469756D2054656D7033
:1023120021202020004C6F772054656D70212020F1
:0A2322002000000000000000000091
:00000001FF
